{
  "contractName": "CoinWar",
  "abi": [
    {
      "constant": true,
      "inputs": [
        {
          "name": "",
          "type": "address"
        }
      ],
      "name": "tokenOneMapping",
      "outputs": [
        {
          "name": "",
          "type": "uint256"
        }
      ],
      "payable": false,
      "stateMutability": "view",
      "type": "function"
    },
    {
      "constant": true,
      "inputs": [],
      "name": "base2",
      "outputs": [
        {
          "name": "",
          "type": "address"
        }
      ],
      "payable": false,
      "stateMutability": "view",
      "type": "function"
    },
    {
      "constant": true,
      "inputs": [
        {
          "name": "",
          "type": "address"
        }
      ],
      "name": "tokenTwoMapping",
      "outputs": [
        {
          "name": "",
          "type": "uint256"
        }
      ],
      "payable": false,
      "stateMutability": "view",
      "type": "function"
    },
    {
      "constant": true,
      "inputs": [],
      "name": "base1",
      "outputs": [
        {
          "name": "",
          "type": "address"
        }
      ],
      "payable": false,
      "stateMutability": "view",
      "type": "function"
    },
    {
      "constant": true,
      "inputs": [],
      "name": "burnAmount",
      "outputs": [
        {
          "name": "",
          "type": "uint256"
        }
      ],
      "payable": false,
      "stateMutability": "view",
      "type": "function"
    },
    {
      "constant": true,
      "inputs": [],
      "name": "owner",
      "outputs": [
        {
          "name": "",
          "type": "address"
        }
      ],
      "payable": false,
      "stateMutability": "view",
      "type": "function"
    },
    {
      "constant": true,
      "inputs": [],
      "name": "toBlock",
      "outputs": [
        {
          "name": "",
          "type": "uint256"
        }
      ],
      "payable": false,
      "stateMutability": "view",
      "type": "function"
    },
    {
      "constant": true,
      "inputs": [],
      "name": "totalTokenTwoBet",
      "outputs": [
        {
          "name": "",
          "type": "uint256"
        }
      ],
      "payable": false,
      "stateMutability": "view",
      "type": "function"
    },
    {
      "constant": true,
      "inputs": [],
      "name": "ownerFee",
      "outputs": [
        {
          "name": "",
          "type": "uint256"
        }
      ],
      "payable": false,
      "stateMutability": "view",
      "type": "function"
    },
    {
      "constant": true,
      "inputs": [],
      "name": "winner",
      "outputs": [
        {
          "name": "",
          "type": "address"
        }
      ],
      "payable": false,
      "stateMutability": "view",
      "type": "function"
    },
    {
      "constant": true,
      "inputs": [],
      "name": "fromBlock",
      "outputs": [
        {
          "name": "",
          "type": "uint256"
        }
      ],
      "payable": false,
      "stateMutability": "view",
      "type": "function"
    },
    {
      "constant": true,
      "inputs": [],
      "name": "totalTokenOneBet",
      "outputs": [
        {
          "name": "",
          "type": "uint256"
        }
      ],
      "payable": false,
      "stateMutability": "view",
      "type": "function"
    },
    {
      "inputs": [
        {
          "name": "_base1",
          "type": "address"
        },
        {
          "name": "_base2",
          "type": "address"
        },
        {
          "name": "_fromBlock",
          "type": "uint256"
        },
        {
          "name": "_toBlock",
          "type": "uint256"
        }
      ],
      "payable": false,
      "stateMutability": "nonpayable",
      "type": "constructor"
    },
    {
      "anonymous": false,
      "inputs": [
        {
          "indexed": false,
          "name": "addr",
          "type": "address"
        }
      ],
      "name": "LogAddress",
      "type": "event"
    },
    {
      "anonymous": false,
      "inputs": [
        {
          "indexed": false,
          "name": "str",
          "type": "string"
        }
      ],
      "name": "LogString",
      "type": "event"
    },
    {
      "anonymous": false,
      "inputs": [
        {
          "indexed": false,
          "name": "number",
          "type": "uint256"
        }
      ],
      "name": "LogUint",
      "type": "event"
    },
    {
      "constant": false,
      "inputs": [
        {
          "name": "tokenOneAddr",
          "type": "address[]"
        },
        {
          "name": "tokenOneBets",
          "type": "uint256[]"
        },
        {
          "name": "tokenTwoAddr",
          "type": "address[]"
        },
        {
          "name": "tokenTwoBets",
          "type": "uint256[]"
        },
        {
          "name": "winningContract",
          "type": "address"
        }
      ],
      "name": "setResults",
      "outputs": [],
      "payable": false,
      "stateMutability": "nonpayable",
      "type": "function"
    },
    {
      "constant": false,
      "inputs": [],
      "name": "awardWinnerAndBurnLooser",
      "outputs": [],
      "payable": false,
      "stateMutability": "nonpayable",
      "type": "function"
    },
    {
      "constant": false,
      "inputs": [
        {
          "name": "userAddress",
          "type": "address"
        }
      ],
      "name": "withdraw",
      "outputs": [],
      "payable": false,
      "stateMutability": "nonpayable",
      "type": "function"
    },
    {
      "constant": true,
      "inputs": [
        {
          "name": "amount",
          "type": "uint256"
        },
        {
          "name": "numerator",
          "type": "uint256"
        },
        {
          "name": "denominator",
          "type": "uint256"
        }
      ],
      "name": "fractionOf",
      "outputs": [
        {
          "name": "",
          "type": "uint256"
        }
      ],
      "payable": false,
      "stateMutability": "pure",
      "type": "function"
    },
    {
      "constant": true,
      "inputs": [
        {
          "name": "user",
          "type": "address"
        }
      ],
      "name": "GetUserBet",
      "outputs": [
        {
          "name": "",
          "type": "uint256"
        }
      ],
      "payable": false,
      "stateMutability": "view",
      "type": "function"
    }
  ],
  "bytecode": "0x6060604052341561000f57600080fd5b60405160808061158683398101604052808051906020019091908051906020019091908051906020019091908051906020019091905050836000806101000a81548173ffffffffffffffffffffffffffffffffffffffff021916908373ffffffffffffffffffffffffffffffffffffffff16021790555082600160006101000a81548173ffffffffffffffffffffffffffffffffffffffff021916908373ffffffffffffffffffffffffffffffffffffffff160217905550816004819055508060058190555033600260006101000a81548173ffffffffffffffffffffffffffffffffffffffff021916908373ffffffffffffffffffffffffffffffffffffffff1602179055505050505061145d806101296000396000f3006060604052600436106100f1576000357c0100000000000000000000000000000000000000000000000000000000900463ffffffff1680632304371b146100f6578063331b950714610143578063378ae22d146101985780633c121234146101ad57806340eafef5146101fa578063486a7e6b1461024f57806351cff8d9146102785780638a8e021b146102b15780638da5cb5b146102fa578063970065911461034f5780639f8f33c914610378578063c4d3abfe146104b1578063c512ba2c146104da578063d5b2a01a14610527578063dfbf53ae14610550578063ed6a6d28146105a5578063ff7a06fe146105ce575b600080fd5b341561010157600080fd5b61012d600480803573ffffffffffffffffffffffffffffffffffffffff169060200190919050506105f7565b6040518082815260200191505060405180910390f35b341561014e57600080fd5b61015661060f565b604051808273ffffffffffffffffffffffffffffffffffffffff1673ffffffffffffffffffffffffffffffffffffffff16815260200191505060405180910390f35b34156101a357600080fd5b6101ab610635565b005b34156101b857600080fd5b6101e4600480803573ffffffffffffffffffffffffffffffffffffffff16906020019091905050610a04565b6040518082815260200191505060405180910390f35b341561020557600080fd5b61020d610a1c565b604051808273ffffffffffffffffffffffffffffffffffffffff1673ffffffffffffffffffffffffffffffffffffffff16815260200191505060405180910390f35b341561025a57600080fd5b610262610a41565b6040518082815260200191505060405180910390f35b341561028357600080fd5b6102af600480803573ffffffffffffffffffffffffffffffffffffffff16906020019091905050610a47565b005b34156102bc57600080fd5b6102e460048080359060200190919080359060200190919080359060200190919050506110ca565b6040518082815260200191505060405180910390f35b341561030557600080fd5b61030d611119565b604051808273ffffffffffffffffffffffffffffffffffffffff1673ffffffffffffffffffffffffffffffffffffffff16815260200191505060405180910390f35b341561035a57600080fd5b61036261113f565b6040518082815260200191505060405180910390f35b341561038357600080fd5b6104af60048080359060200190820180359060200190808060200260200160405190810160405280939291908181526020018383602002808284378201915050505050509190803590602001908201803590602001908080602002602001604051908101604052809392919081815260200183836020028082843782019150505050505091908035906020019082018035906020019080806020026020016040519081016040528093929190818152602001838360200280828437820191505050505050919080359060200190820180359060200190808060200260200160405190810160405280939291908181526020018383602002808284378201915050505050509190803573ffffffffffffffffffffffffffffffffffffffff16906020019091905050611145565b005b34156104bc57600080fd5b6104c461131a565b6040518082815260200191505060405180910390f35b34156104e557600080fd5b610511600480803573ffffffffffffffffffffffffffffffffffffffff16906020019091905050611320565b6040518082815260200191505060405180910390f35b341561053257600080fd5b61053a6113f9565b6040518082815260200191505060405180910390f35b341561055b57600080fd5b6105636113ff565b604051808273ffffffffffffffffffffffffffffffffffffffff1673ffffffffffffffffffffffffffffffffffffffff16815260200191505060405180910390f35b34156105b057600080fd5b6105b8611425565b6040518082815260200191505060405180910390f35b34156105d957600080fd5b6105e161142b565b6040518082815260200191505060405180910390f35b60066020528060005260406000206000915090505481565b600160009054906101000a900473ffffffffffffffffffffffffffffffffffffffff1681565b6000809054906101000a900473ffffffffffffffffffffffffffffffffffffffff1673ffffffffffffffffffffffffffffffffffffffff16600360009054906101000a900473ffffffffffffffffffffffffffffffffffffffff1673ffffffffffffffffffffffffffffffffffffffff161480156106b65750600060095414155b1561081b576106ca6009546001600a6110ca565b600a819055506106df600954600160146110ca565b600b81905550600a54600960008282540392505081905550600b54600960008282540392505081905550600160009054906101000a900473ffffffffffffffffffffffffffffffffffffffff1673ffffffffffffffffffffffffffffffffffffffff1663a9059cbb600160009054906101000a900473ffffffffffffffffffffffffffffffffffffffff16600a546000604051602001526040518363ffffffff167c0100000000000000000000000000000000000000000000000000000000028152600401808373ffffffffffffffffffffffffffffffffffffffff1673ffffffffffffffffffffffffffffffffffffffff16815260200182815260200192505050602060405180830381600087803b15156107fa57600080fd5b6102c65a03f1151561080b57600080fd5b5050506040518051905050610a02565b600160009054906101000a900473ffffffffffffffffffffffffffffffffffffffff1673ffffffffffffffffffffffffffffffffffffffff16600360009054906101000a900473ffffffffffffffffffffffffffffffffffffffff1673ffffffffffffffffffffffffffffffffffffffff1614801561089d5750600060085414155b15610a00576108b16008546001600a6110ca565b600a819055506108c6600854600160146110ca565b600b81905550600a54600860008282540392505081905550600b546008600082825403925050819055506000809054906101000a900473ffffffffffffffffffffffffffffffffffffffff1673ffffffffffffffffffffffffffffffffffffffff1663a9059cbb6000809054906101000a900473ffffffffffffffffffffffffffffffffffffffff16600a546000604051602001526040518363ffffffff167c0100000000000000000000000000000000000000000000000000000000028152600401808373ffffffffffffffffffffffffffffffffffffffff1673ffffffffffffffffffffffffffffffffffffffff16815260200182815260200192505050602060405180830381600087803b15156109df57600080fd5b6102c65a03f115156109f057600080fd5b5050506040518051905050610a01565b5b5b565b60076020528060005260406000206000915090505481565b6000809054906101000a900473ffffffffffffffffffffffffffffffffffffffff1681565b600a5481565b60008060009054906101000a900473ffffffffffffffffffffffffffffffffffffffff1673ffffffffffffffffffffffffffffffffffffffff16600360009054906101000a900473ffffffffffffffffffffffffffffffffffffffff1673ffffffffffffffffffffffffffffffffffffffff161415610d86576000600660008473ffffffffffffffffffffffffffffffffffffffff1673ffffffffffffffffffffffffffffffffffffffff1681526020019081526020016000205414151515610b0f57600080fd5b600060085414151515610b2157600080fd5b610b6f600954600660008573ffffffffffffffffffffffffffffffffffffffff1673ffffffffffffffffffffffffffffffffffffffff168152602001908152602001600020546008546110ca565b9050600160009054906101000a900473ffffffffffffffffffffffffffffffffffffffff1673ffffffffffffffffffffffffffffffffffffffff1663a9059cbb83836000604051602001526040518363ffffffff167c0100000000000000000000000000000000000000000000000000000000028152600401808373ffffffffffffffffffffffffffffffffffffffff1673ffffffffffffffffffffffffffffffffffffffff16815260200182815260200192505050602060405180830381600087803b1515610c3e57600080fd5b6102c65a03f11515610c4f57600080fd5b50505060405180519050506000809054906101000a900473ffffffffffffffffffffffffffffffffffffffff1673ffffffffffffffffffffffffffffffffffffffff1663a9059cbb83600660008673ffffffffffffffffffffffffffffffffffffffff1673ffffffffffffffffffffffffffffffffffffffff168152602001908152602001600020546000604051602001526040518363ffffffff167c0100000000000000000000000000000000000000000000000000000000028152600401808373ffffffffffffffffffffffffffffffffffffffff1673ffffffffffffffffffffffffffffffffffffffff16815260200182815260200192505050602060405180830381600087803b1515610d6557600080fd5b6102c65a03f11515610d7657600080fd5b50505060405180519050506110c6565b600160009054906101000a900473ffffffffffffffffffffffffffffffffffffffff1673ffffffffffffffffffffffffffffffffffffffff16600360009054906101000a900473ffffffffffffffffffffffffffffffffffffffff1673ffffffffffffffffffffffffffffffffffffffff1614156110c4576000600760008473ffffffffffffffffffffffffffffffffffffffff1673ffffffffffffffffffffffffffffffffffffffff1681526020019081526020016000205414151515610e4d57600080fd5b600060095414151515610e5f57600080fd5b610ead600854600760008573ffffffffffffffffffffffffffffffffffffffff1673ffffffffffffffffffffffffffffffffffffffff168152602001908152602001600020546009546110ca565b90506000809054906101000a900473ffffffffffffffffffffffffffffffffffffffff1673ffffffffffffffffffffffffffffffffffffffff1663a9059cbb83836000604051602001526040518363ffffffff167c0100000000000000000000000000000000000000000000000000000000028152600401808373ffffffffffffffffffffffffffffffffffffffff1673ffffffffffffffffffffffffffffffffffffffff16815260200182815260200192505050602060405180830381600087803b1515610f7b57600080fd5b6102c65a03f11515610f8c57600080fd5b5050506040518051905050600160009054906101000a900473ffffffffffffffffffffffffffffffffffffffff1673ffffffffffffffffffffffffffffffffffffffff1663a9059cbb83600760008673ffffffffffffffffffffffffffffffffffffffff1673ffffffffffffffffffffffffffffffffffffffff168152602001908152602001600020546000604051602001526040518363ffffffff167c0100000000000000000000000000000000000000000000000000000000028152600401808373ffffffffffffffffffffffffffffffffffffffff1673ffffffffffffffffffffffffffffffffffffffff16815260200182815260200192505050602060405180830381600087803b15156110a357600080fd5b6102c65a03f115156110b457600080fd5b50505060405180519050506110c5565b5b5b5050565b60008082851015156110eb57828486028115156110e357fe5b049150611111565b600185848115156110f857fe5b04019050808302818587020281151561110d57fe5b0491505b509392505050565b600260009054906101000a900473ffffffffffffffffffffffffffffffffffffffff1681565b60055481565b6000808551875114151561115857600080fd5b8351855114151561116857600080fd5b82600360006101000a81548173ffffffffffffffffffffffffffffffffffffffff021916908373ffffffffffffffffffffffffffffffffffffffff160217905550600091505b865182101561125d5785828151811015156111c557fe5b906020019060200201516006600089858151811015156111e157fe5b9060200190602002015173ffffffffffffffffffffffffffffffffffffffff1673ffffffffffffffffffffffffffffffffffffffff16815260200190815260200160002081905550858281518110151561123757fe5b9060200190602002015160086000828254019250508190555081806001019250506111ae565b600090505b845181101561131157838181518110151561127957fe5b9060200190602002015160076000878481518110151561129557fe5b9060200190602002015173ffffffffffffffffffffffffffffffffffffffff1673ffffffffffffffffffffffffffffffffffffffff1681526020019081526020016000208190555083818151811015156112eb57fe5b906020019060200201516009600082825401925050819055508080600101915050611262565b50505050505050565b60095481565b600080600660008473ffffffffffffffffffffffffffffffffffffffff1673ffffffffffffffffffffffffffffffffffffffff168152602001908152602001600020541415156113b157600660008373ffffffffffffffffffffffffffffffffffffffff1673ffffffffffffffffffffffffffffffffffffffff1681526020019081526020016000205490506113f4565b600760008373ffffffffffffffffffffffffffffffffffffffff1673ffffffffffffffffffffffffffffffffffffffff1681526020019081526020016000205490505b919050565b600b5481565b600360009054906101000a900473ffffffffffffffffffffffffffffffffffffffff1681565b60045481565b600854815600a165627a7a723058201ea94e1c3fdf1cec52f5909497c07a0dbf6976fc99bf5067943630f34cc41c390029",
  "source": "pragma solidity ^0.4.18;\n\nimport { Base1 } from \"./Base1.sol\";\nimport { Base2 } from \"./Base2.sol\";\nimport { ERC20 } from \"./ERC20.sol\";\n\n/* Eventually Replace With 1 ERC20 Wrapper\ncontract ERC20 {\n  function transfer(address _to, uint256 _value) public returns (bool success);\n}\n*/\n\ncontract CoinWar {\n\n  Base1 public base1;\n  Base2 public base2;\n\n  address public owner;\n  address public winner;\n\n  uint public fromBlock;\n  uint public toBlock;\n\n\n  mapping (address => uint) public tokenOneMapping;\n  mapping (address => uint) public tokenTwoMapping;\n\n  uint public totalTokenOneBet;\n  uint public totalTokenTwoBet;\n  uint public burnAmount;\n  uint public ownerFee;\n\n\n\n  event LogAddress(address addr);\n  event LogString(string str);\n  event LogUint(uint number);\n\n  function CoinWar(address _base1, address _base2, uint _fromBlock, uint _toBlock)\n    public\n  {\n    base1 = Base1(_base1);\n    base2 = Base2(_base2);\n\n    fromBlock = _fromBlock;\n    toBlock = _toBlock;\n\n\n    owner = msg.sender;\n    //base1.transferFrom();\n\n  }\n\n  function setResults(address[] tokenOneAddr, uint[] tokenOneBets, address[] tokenTwoAddr, uint[] tokenTwoBets, address winningContract)\n    public\n  {\n    require(tokenOneAddr.length == tokenOneBets.length);\n    require(tokenTwoAddr.length == tokenTwoBets.length);\n\n    winner = winningContract;\n\n    for (uint i = 0; i < tokenOneAddr.length; i++) {\n      tokenOneMapping[tokenOneAddr[i]] = tokenOneBets[i];\n      totalTokenOneBet += tokenOneBets[i];\n    }\n\n    for (uint j = 0; j < tokenTwoAddr.length; j++) {\n      tokenTwoMapping[tokenTwoAddr[j]] = tokenTwoBets[j];\n      totalTokenTwoBet += tokenTwoBets[j];\n    }\n\n\n    //burn and withdraw\n\n  }\n\n  function awardWinnerAndBurnLooser()\n    public\n  {\n\n\n\n\n    if (winner == address(base1) && totalTokenTwoBet != 0) {\n\n        burnAmount = fractionOf(totalTokenTwoBet, 1, 10);\n        ownerFee = fractionOf(totalTokenTwoBet, 1, 20);\n\n        totalTokenTwoBet -= burnAmount;\n        totalTokenTwoBet -= ownerFee;\n\n        //\"0x000000000000000000000000000000000000dEaD\" --> burn address to be added\n        base2.transfer(address(base2), burnAmount);\n\n    } else if (winner == address(base2) && totalTokenOneBet != 0) {\n\n        burnAmount = fractionOf(totalTokenOneBet, 1, 10);\n        ownerFee = fractionOf(totalTokenOneBet, 1, 20);\n\n        totalTokenOneBet -= burnAmount;\n        totalTokenOneBet -= ownerFee;\n\n\n        //\"0x000000000000000000000000000000000000dEaD\" --> burn address to be added\n        base1.transfer(address(base1), burnAmount);\n\n    } else {\n\n    }\n\n  }\n\n  function withdraw(address userAddress)\n    public\n  {\n    //check if the game is over\n    uint amount;\n    if (winner == address(base1)) {\n\n      require(tokenOneMapping[userAddress] != 0);\n      require(totalTokenOneBet != 0);\n\n      amount = fractionOf(totalTokenTwoBet, tokenOneMapping[userAddress], totalTokenOneBet);\n      base2.transfer(userAddress, amount);\n      base1.transfer(userAddress, tokenOneMapping[userAddress]);\n\n    } else if (winner == address(base2)) {\n      require(tokenTwoMapping[userAddress] != 0);\n      require(totalTokenTwoBet != 0);\n      amount = fractionOf(totalTokenOneBet, tokenTwoMapping[userAddress], totalTokenTwoBet);\n      base1.transfer(userAddress, amount);\n      base2.transfer(userAddress, tokenTwoMapping[userAddress]);\n\n\n    } else {\n\n    }\n\n  }\n\n  function fractionOf(uint amount, uint numerator, uint denominator)\n    public\n    pure\n    returns (uint)\n  {\n\n    if (amount >= denominator)\n      return (amount*numerator)/denominator;\n\n    uint scalar;\n    scalar = (denominator/amount) + 1;\n\n    return (amount*numerator*scalar)/(denominator*scalar);\n\n  }\n\n\n  function GetUserBet(address user)\n    public\n    view\n    returns (uint)\n  {\n    if(tokenOneMapping[user] != 0)\n      return tokenOneMapping[user];\n    return tokenTwoMapping[user];\n    //return totalTokenOneBet;\n  }\n\n\n\n\n\n\n\n\n\n\n\n}\n",
  "sourcePath": "/Users/jagjotsingh/ReactApps/coinwars/src/solidity/contracts/CoinWar.sol",
  "compiler": {
    "name": "solc",
    "version": "0.4.19+commit.c4cbbb05.Emscripten.clang"
  },
  "schemaVersion": "2.0.0",
  "updatedAt": "2018-03-17T19:29:25.057Z"
}