{
  "contractName": "WarFactory",
  "abi": [
    {
      "constant": true,
      "inputs": [],
      "name": "ongGoingWars",
      "outputs": [
        {
          "name": "",
          "type": "uint256"
        }
      ],
      "payable": false,
      "stateMutability": "view",
      "type": "function"
    },
    {
      "constant": true,
      "inputs": [],
      "name": "owner",
      "outputs": [
        {
          "name": "",
          "type": "address"
        }
      ],
      "payable": false,
      "stateMutability": "view",
      "type": "function"
    },
    {
      "constant": true,
      "inputs": [
        {
          "name": "",
          "type": "uint256"
        }
      ],
      "name": "allWars",
      "outputs": [
        {
          "name": "opponents",
          "type": "string"
        },
        {
          "name": "coinWar",
          "type": "address"
        },
        {
          "name": "isOngoing",
          "type": "bool"
        }
      ],
      "payable": false,
      "stateMutability": "view",
      "type": "function"
    },
    {
      "inputs": [],
      "payable": false,
      "stateMutability": "nonpayable",
      "type": "constructor"
    },
    {
      "constant": false,
      "inputs": [
        {
          "name": "_opponents",
          "type": "string"
        },
        {
          "name": "_tokeOne",
          "type": "address"
        },
        {
          "name": "_tokenTwo",
          "type": "address"
        },
        {
          "name": "_fromBlock",
          "type": "uint256"
        },
        {
          "name": "_toBlock",
          "type": "uint256"
        }
      ],
      "name": "CreateCoinWar",
      "outputs": [],
      "payable": false,
      "stateMutability": "nonpayable",
      "type": "function"
    },
    {
      "constant": true,
      "inputs": [
        {
          "name": "index",
          "type": "uint256"
        }
      ],
      "name": "GetWarAtIndex",
      "outputs": [
        {
          "name": "",
          "type": "string"
        },
        {
          "name": "",
          "type": "address"
        }
      ],
      "payable": false,
      "stateMutability": "view",
      "type": "function"
    },
    {
      "constant": false,
      "inputs": [
        {
          "name": "index",
          "type": "uint256"
        }
      ],
      "name": "CloseWarAtIndex",
      "outputs": [],
      "payable": false,
      "stateMutability": "nonpayable",
      "type": "function"
    }
  ],
  "bytecode": "0x6060604052341561000f57600080fd5b33600260006101000a81548173ffffffffffffffffffffffffffffffffffffffff021916908373ffffffffffffffffffffffffffffffffffffffff160217905550611e788061005f6000396000f300606060405260043610610078576000357c0100000000000000000000000000000000000000000000000000000000900463ffffffff1680631c35ea291461007d57806340fb77721461014c578063445bca0b146101f95780634ce9d832146102225780638da5cb5b14610245578063b0d8ce0f1461029a575b600080fd5b341561008857600080fd5b61009e6004808035906020019091905050610391565b60405180806020018373ffffffffffffffffffffffffffffffffffffffff1673ffffffffffffffffffffffffffffffffffffffff168152602001828103825284818151815260200191508051906020019080838360005b838110156101105780820151818401526020810190506100f5565b50505050905090810190601f16801561013d5780820380516001836020036101000a031916815260200191505b50935050505060405180910390f35b341561015757600080fd5b6101f7600480803590602001908201803590602001908080601f0160208091040260200160405190810160405280939291908181526020018383808284378201915050505050509190803573ffffffffffffffffffffffffffffffffffffffff1690602001909190803573ffffffffffffffffffffffffffffffffffffffff169060200190919080359060200190919080359060200190919050506104a3565b005b341561020457600080fd5b61020c61063d565b6040518082815260200191505060405180910390f35b341561022d57600080fd5b6102436004808035906020019091905050610643565b005b341561025057600080fd5b61025861068e565b604051808273ffffffffffffffffffffffffffffffffffffffff1673ffffffffffffffffffffffffffffffffffffffff16815260200191505060405180910390f35b34156102a557600080fd5b6102bb60048080359060200190919050506106b4565b60405180806020018473ffffffffffffffffffffffffffffffffffffffff1673ffffffffffffffffffffffffffffffffffffffff168152602001831515151581526020018281038252858181546001816001161561010002031660029004815260200191508054600181600116156101000203166002900480156103805780601f1061035557610100808354040283529160200191610380565b820191906000526020600020905b81548152906001019060200180831161036357829003601f168201915b505094505050505060405180910390f35b610399610719565b600080838154811015156103a957fe5b90600052602060002090600202016000016000848154811015156103c957fe5b906000526020600020906002020160010160009054906101000a900473ffffffffffffffffffffffffffffffffffffffff16818054600181600116156101000203166002900480601f0160208091040260200160405190810160405280929190818152602001828054600181600116156101000203166002900480156104905780601f1061046557610100808354040283529160200191610490565b820191906000526020600020905b81548152906001019060200180831161047357829003601f168201915b5050505050915080905091509150915091565b600060018060008282540192505081905550848484846104c161072d565b808573ffffffffffffffffffffffffffffffffffffffff1673ffffffffffffffffffffffffffffffffffffffff1681526020018473ffffffffffffffffffffffffffffffffffffffff1673ffffffffffffffffffffffffffffffffffffffff168152602001838152602001828152602001945050505050604051809103906000f080151561054e57600080fd5b905060008054806001018281610564919061073d565b916000526020600020906002020160006060604051908101604052808a81526020018573ffffffffffffffffffffffffffffffffffffffff16815260200160011515815250909190915060008201518160000190805190602001906105ca92919061076f565b5060208201518160010160006101000a81548173ffffffffffffffffffffffffffffffffffffffff021916908373ffffffffffffffffffffffffffffffffffffffff16021790555060408201518160010160146101000a81548160ff021916908315150217905550505050505050505050565b60015481565b600180600082825403925050819055506000808281548110151561066357fe5b906000526020600020906002020160010160146101000a81548160ff02191690831515021790555050565b600260009054906101000a900473ffffffffffffffffffffffffffffffffffffffff1681565b6000818154811015156106c357fe5b906000526020600020906002020160009150905080600001908060010160009054906101000a900473ffffffffffffffffffffffffffffffffffffffff16908060010160149054906101000a900460ff16905083565b602060405190810160405280600081525090565b604051611586806108c783390190565b81548183558181151161076a5760020281600202836000526020600020918201910161076991906107ef565b5b505050565b828054600181600116156101000203166002900490600052602060002090601f016020900481019282601f106107b057805160ff19168380011785556107de565b828001600101855582156107de579182015b828111156107dd5782518255916020019190600101906107c2565b5b5090506107eb9190610859565b5090565b61085691905b80821115610852576000808201600061080e919061087e565b6001820160006101000a81549073ffffffffffffffffffffffffffffffffffffffff02191690556001820160146101000a81549060ff0219169055506002016107f5565b5090565b90565b61087b91905b8082111561087757600081600090555060010161085f565b5090565b90565b50805460018160011615610100020316600290046000825580601f106108a457506108c3565b601f0160209004906000526020600020908101906108c29190610859565b5b5056006060604052341561000f57600080fd5b60405160808061158683398101604052808051906020019091908051906020019091908051906020019091908051906020019091905050836000806101000a81548173ffffffffffffffffffffffffffffffffffffffff021916908373ffffffffffffffffffffffffffffffffffffffff16021790555082600160006101000a81548173ffffffffffffffffffffffffffffffffffffffff021916908373ffffffffffffffffffffffffffffffffffffffff160217905550816004819055508060058190555033600260006101000a81548173ffffffffffffffffffffffffffffffffffffffff021916908373ffffffffffffffffffffffffffffffffffffffff1602179055505050505061145d806101296000396000f3006060604052600436106100f1576000357c0100000000000000000000000000000000000000000000000000000000900463ffffffff1680632304371b146100f6578063331b950714610143578063378ae22d146101985780633c121234146101ad57806340eafef5146101fa578063486a7e6b1461024f57806351cff8d9146102785780638a8e021b146102b15780638da5cb5b146102fa578063970065911461034f5780639f8f33c914610378578063c4d3abfe146104b1578063c512ba2c146104da578063d5b2a01a14610527578063dfbf53ae14610550578063ed6a6d28146105a5578063ff7a06fe146105ce575b600080fd5b341561010157600080fd5b61012d600480803573ffffffffffffffffffffffffffffffffffffffff169060200190919050506105f7565b6040518082815260200191505060405180910390f35b341561014e57600080fd5b61015661060f565b604051808273ffffffffffffffffffffffffffffffffffffffff1673ffffffffffffffffffffffffffffffffffffffff16815260200191505060405180910390f35b34156101a357600080fd5b6101ab610635565b005b34156101b857600080fd5b6101e4600480803573ffffffffffffffffffffffffffffffffffffffff16906020019091905050610a04565b6040518082815260200191505060405180910390f35b341561020557600080fd5b61020d610a1c565b604051808273ffffffffffffffffffffffffffffffffffffffff1673ffffffffffffffffffffffffffffffffffffffff16815260200191505060405180910390f35b341561025a57600080fd5b610262610a41565b6040518082815260200191505060405180910390f35b341561028357600080fd5b6102af600480803573ffffffffffffffffffffffffffffffffffffffff16906020019091905050610a47565b005b34156102bc57600080fd5b6102e460048080359060200190919080359060200190919080359060200190919050506110ca565b6040518082815260200191505060405180910390f35b341561030557600080fd5b61030d611119565b604051808273ffffffffffffffffffffffffffffffffffffffff1673ffffffffffffffffffffffffffffffffffffffff16815260200191505060405180910390f35b341561035a57600080fd5b61036261113f565b6040518082815260200191505060405180910390f35b341561038357600080fd5b6104af60048080359060200190820180359060200190808060200260200160405190810160405280939291908181526020018383602002808284378201915050505050509190803590602001908201803590602001908080602002602001604051908101604052809392919081815260200183836020028082843782019150505050505091908035906020019082018035906020019080806020026020016040519081016040528093929190818152602001838360200280828437820191505050505050919080359060200190820180359060200190808060200260200160405190810160405280939291908181526020018383602002808284378201915050505050509190803573ffffffffffffffffffffffffffffffffffffffff16906020019091905050611145565b005b34156104bc57600080fd5b6104c461131a565b6040518082815260200191505060405180910390f35b34156104e557600080fd5b610511600480803573ffffffffffffffffffffffffffffffffffffffff16906020019091905050611320565b6040518082815260200191505060405180910390f35b341561053257600080fd5b61053a6113f9565b6040518082815260200191505060405180910390f35b341561055b57600080fd5b6105636113ff565b604051808273ffffffffffffffffffffffffffffffffffffffff1673ffffffffffffffffffffffffffffffffffffffff16815260200191505060405180910390f35b34156105b057600080fd5b6105b8611425565b6040518082815260200191505060405180910390f35b34156105d957600080fd5b6105e161142b565b6040518082815260200191505060405180910390f35b60066020528060005260406000206000915090505481565b600160009054906101000a900473ffffffffffffffffffffffffffffffffffffffff1681565b6000809054906101000a900473ffffffffffffffffffffffffffffffffffffffff1673ffffffffffffffffffffffffffffffffffffffff16600360009054906101000a900473ffffffffffffffffffffffffffffffffffffffff1673ffffffffffffffffffffffffffffffffffffffff161480156106b65750600060095414155b1561081b576106ca6009546001600a6110ca565b600a819055506106df600954600160146110ca565b600b81905550600a54600960008282540392505081905550600b54600960008282540392505081905550600160009054906101000a900473ffffffffffffffffffffffffffffffffffffffff1673ffffffffffffffffffffffffffffffffffffffff1663a9059cbb600160009054906101000a900473ffffffffffffffffffffffffffffffffffffffff16600a546000604051602001526040518363ffffffff167c0100000000000000000000000000000000000000000000000000000000028152600401808373ffffffffffffffffffffffffffffffffffffffff1673ffffffffffffffffffffffffffffffffffffffff16815260200182815260200192505050602060405180830381600087803b15156107fa57600080fd5b6102c65a03f1151561080b57600080fd5b5050506040518051905050610a02565b600160009054906101000a900473ffffffffffffffffffffffffffffffffffffffff1673ffffffffffffffffffffffffffffffffffffffff16600360009054906101000a900473ffffffffffffffffffffffffffffffffffffffff1673ffffffffffffffffffffffffffffffffffffffff1614801561089d5750600060085414155b15610a00576108b16008546001600a6110ca565b600a819055506108c6600854600160146110ca565b600b81905550600a54600860008282540392505081905550600b546008600082825403925050819055506000809054906101000a900473ffffffffffffffffffffffffffffffffffffffff1673ffffffffffffffffffffffffffffffffffffffff1663a9059cbb6000809054906101000a900473ffffffffffffffffffffffffffffffffffffffff16600a546000604051602001526040518363ffffffff167c0100000000000000000000000000000000000000000000000000000000028152600401808373ffffffffffffffffffffffffffffffffffffffff1673ffffffffffffffffffffffffffffffffffffffff16815260200182815260200192505050602060405180830381600087803b15156109df57600080fd5b6102c65a03f115156109f057600080fd5b5050506040518051905050610a01565b5b5b565b60076020528060005260406000206000915090505481565b6000809054906101000a900473ffffffffffffffffffffffffffffffffffffffff1681565b600a5481565b60008060009054906101000a900473ffffffffffffffffffffffffffffffffffffffff1673ffffffffffffffffffffffffffffffffffffffff16600360009054906101000a900473ffffffffffffffffffffffffffffffffffffffff1673ffffffffffffffffffffffffffffffffffffffff161415610d86576000600660008473ffffffffffffffffffffffffffffffffffffffff1673ffffffffffffffffffffffffffffffffffffffff1681526020019081526020016000205414151515610b0f57600080fd5b600060085414151515610b2157600080fd5b610b6f600954600660008573ffffffffffffffffffffffffffffffffffffffff1673ffffffffffffffffffffffffffffffffffffffff168152602001908152602001600020546008546110ca565b9050600160009054906101000a900473ffffffffffffffffffffffffffffffffffffffff1673ffffffffffffffffffffffffffffffffffffffff1663a9059cbb83836000604051602001526040518363ffffffff167c0100000000000000000000000000000000000000000000000000000000028152600401808373ffffffffffffffffffffffffffffffffffffffff1673ffffffffffffffffffffffffffffffffffffffff16815260200182815260200192505050602060405180830381600087803b1515610c3e57600080fd5b6102c65a03f11515610c4f57600080fd5b50505060405180519050506000809054906101000a900473ffffffffffffffffffffffffffffffffffffffff1673ffffffffffffffffffffffffffffffffffffffff1663a9059cbb83600660008673ffffffffffffffffffffffffffffffffffffffff1673ffffffffffffffffffffffffffffffffffffffff168152602001908152602001600020546000604051602001526040518363ffffffff167c0100000000000000000000000000000000000000000000000000000000028152600401808373ffffffffffffffffffffffffffffffffffffffff1673ffffffffffffffffffffffffffffffffffffffff16815260200182815260200192505050602060405180830381600087803b1515610d6557600080fd5b6102c65a03f11515610d7657600080fd5b50505060405180519050506110c6565b600160009054906101000a900473ffffffffffffffffffffffffffffffffffffffff1673ffffffffffffffffffffffffffffffffffffffff16600360009054906101000a900473ffffffffffffffffffffffffffffffffffffffff1673ffffffffffffffffffffffffffffffffffffffff1614156110c4576000600760008473ffffffffffffffffffffffffffffffffffffffff1673ffffffffffffffffffffffffffffffffffffffff1681526020019081526020016000205414151515610e4d57600080fd5b600060095414151515610e5f57600080fd5b610ead600854600760008573ffffffffffffffffffffffffffffffffffffffff1673ffffffffffffffffffffffffffffffffffffffff168152602001908152602001600020546009546110ca565b90506000809054906101000a900473ffffffffffffffffffffffffffffffffffffffff1673ffffffffffffffffffffffffffffffffffffffff1663a9059cbb83836000604051602001526040518363ffffffff167c0100000000000000000000000000000000000000000000000000000000028152600401808373ffffffffffffffffffffffffffffffffffffffff1673ffffffffffffffffffffffffffffffffffffffff16815260200182815260200192505050602060405180830381600087803b1515610f7b57600080fd5b6102c65a03f11515610f8c57600080fd5b5050506040518051905050600160009054906101000a900473ffffffffffffffffffffffffffffffffffffffff1673ffffffffffffffffffffffffffffffffffffffff1663a9059cbb83600760008673ffffffffffffffffffffffffffffffffffffffff1673ffffffffffffffffffffffffffffffffffffffff168152602001908152602001600020546000604051602001526040518363ffffffff167c0100000000000000000000000000000000000000000000000000000000028152600401808373ffffffffffffffffffffffffffffffffffffffff1673ffffffffffffffffffffffffffffffffffffffff16815260200182815260200192505050602060405180830381600087803b15156110a357600080fd5b6102c65a03f115156110b457600080fd5b50505060405180519050506110c5565b5b5b5050565b60008082851015156110eb57828486028115156110e357fe5b049150611111565b600185848115156110f857fe5b04019050808302818587020281151561110d57fe5b0491505b509392505050565b600260009054906101000a900473ffffffffffffffffffffffffffffffffffffffff1681565b60055481565b6000808551875114151561115857600080fd5b8351855114151561116857600080fd5b82600360006101000a81548173ffffffffffffffffffffffffffffffffffffffff021916908373ffffffffffffffffffffffffffffffffffffffff160217905550600091505b865182101561125d5785828151811015156111c557fe5b906020019060200201516006600089858151811015156111e157fe5b9060200190602002015173ffffffffffffffffffffffffffffffffffffffff1673ffffffffffffffffffffffffffffffffffffffff16815260200190815260200160002081905550858281518110151561123757fe5b9060200190602002015160086000828254019250508190555081806001019250506111ae565b600090505b845181101561131157838181518110151561127957fe5b9060200190602002015160076000878481518110151561129557fe5b9060200190602002015173ffffffffffffffffffffffffffffffffffffffff1673ffffffffffffffffffffffffffffffffffffffff1681526020019081526020016000208190555083818151811015156112eb57fe5b906020019060200201516009600082825401925050819055508080600101915050611262565b50505050505050565b60095481565b600080600660008473ffffffffffffffffffffffffffffffffffffffff1673ffffffffffffffffffffffffffffffffffffffff168152602001908152602001600020541415156113b157600660008373ffffffffffffffffffffffffffffffffffffffff1673ffffffffffffffffffffffffffffffffffffffff1681526020019081526020016000205490506113f4565b600760008373ffffffffffffffffffffffffffffffffffffffff1673ffffffffffffffffffffffffffffffffffffffff1681526020019081526020016000205490505b919050565b600b5481565b600360009054906101000a900473ffffffffffffffffffffffffffffffffffffffff1681565b60045481565b600854815600a165627a7a723058201ea94e1c3fdf1cec52f5909497c07a0dbf6976fc99bf5067943630f34cc41c390029a165627a7a72305820e4b0336b56e34b78ce38ec2751d1c020dc782fbe29e0d5267a824d81eb8b22f70029",
  "source": "pragma solidity ^0.4.18;\n\n\nimport { CoinWar } from \"./CoinWar.sol\";\n\ncontract WarFactory {\n\n\n  struct War {\n    string opponents;\n    CoinWar coinWar;\n    bool isOngoing;\n\n  }\n\n  War[] public allWars;\n  uint public ongGoingWars;\n\n  address public owner;\n\n\n\n\n  function WarFactory()\n    public\n  {\n    //dummy values\n    /*allWars.push(War(\"MMT GGX\", true));\n    allWars.push(War(\"EOS TRX\", true));\n    allWars.push(War(\"VEN OMG\", true));\n    allWars.push(War(\"ICX BNB\", true));\n    allWars.push(War(\"DGD PPT\", true));\n    allWars.push(War(\"MKR SNT\", true));*/\n    //ongGoingWars = 5;\n    owner = msg.sender;\n\n  }\n\n  function CreateCoinWar(string _opponents, address _tokeOne, address _tokenTwo, uint _fromBlock, uint _toBlock)\n    public\n  {\n    ongGoingWars += 1;\n    CoinWar newWar = new CoinWar(_tokeOne, _tokenTwo, _fromBlock, _toBlock);\n    allWars.push(War(_opponents, newWar, true));\n  }\n\n  function GetWarAtIndex(uint index)\n    public\n    view\n    returns (string,address)\n  {\n    return (allWars[index].opponents, allWars[index].coinWar);\n  }\n\n  function CloseWarAtIndex(uint index)\n    public\n  {\n    ongGoingWars -= 1;\n    allWars[index].isOngoing = false;\n  }\n\n  //function\n\n\n}\n",
  "sourcePath": "/Users/jagjotsingh/ReactApps/coinwars/src/solidity/contracts/WarFactory.sol",
  "compiler": {
    "name": "solc",
    "version": "0.4.19+commit.c4cbbb05.Emscripten.clang"
  },
  "schemaVersion": "2.0.0",
  "updatedAt": "2018-03-17T19:29:25.060Z"
}